{
  "transactions": [
    {
      "hash": "0x1f502acd23d4ca214a2492209bcbda0d6030d28773e8dd92bb86767baa1fc417",
      "transactionType": "CALL",
      "contractName": null,
      "contractAddress": "0x75faf114eafb1bdbe2f0316df893fd58ce46aa4d",
      "function": "transfer(address,uint256)",
      "arguments": [
        "0xEfDA72013d7102A9BD2D145554BE3eA47Dd5Fc08",
        "100000"
      ],
      "transaction": {
        "from": "0x23bf95de9f90338f973056351c8cd2cb78cbe52f",
        "to": "0x75faf114eafb1bdbe2f0316df893fd58ce46aa4d",
        "gas": "0x1403c",
        "value": "0x0",
        "input": "0xa9059cbb000000000000000000000000efda72013d7102a9bd2d145554be3ea47dd5fc0800000000000000000000000000000000000000000000000000000000000186a0",
        "nonce": "0x2ae",
        "chainId": "0x66eee"
      },
      "additionalContracts": [],
      "isFixedGasLimit": false
    }
  ],
  "receipts": [
    {
      "status": "0x1",
      "cumulativeGasUsed": "0xf30a",
      "logs": [
        {
          "address": "0x75faf114eafb1bdbe2f0316df893fd58ce46aa4d",
          "topics": [
            "0xddf252ad1be2c89b69c2b068fc378daa952ba7f163c4a11628f55a4df523b3ef",
            "0x00000000000000000000000023bf95de9f90338f973056351c8cd2cb78cbe52f",
            "0x000000000000000000000000efda72013d7102a9bd2d145554be3ea47dd5fc08"
          ],
          "data": "0x00000000000000000000000000000000000000000000000000000000000186a0",
          "blockHash": "0x6012b7bbab6c9425b56d09960807156e5e728723c2fcb93891cf66a7ed64ce50",
          "blockNumber": "0xdc2ce40",
          "blockTimestamp": "0x695bc921",
          "transactionHash": "0x1f502acd23d4ca214a2492209bcbda0d6030d28773e8dd92bb86767baa1fc417",
          "transactionIndex": "0x1",
          "logIndex": "0x0",
          "removed": false
        }
      ],
      "logsBloom": "0x00000000000000000000000000000000000000000000000000000000040000000000000000000000000000000000000000000000000000000000000000000000800000000000000000000008000000000000000000000000000000000000000000000000000000000000000000000000000000000000000000000010000000000000000000000000000000000000000000000000000000000000000000000000000000008000000000000000000100000000000000000000000000000000000000000002000000000000000000000000088000000000000000000000000000000000000000000000000000000000000000000800000000000100000000000004",
      "type": "0x2",
      "transactionHash": "0x1f502acd23d4ca214a2492209bcbda0d6030d28773e8dd92bb86767baa1fc417",
      "transactionIndex": "0x1",
      "blockHash": "0x6012b7bbab6c9425b56d09960807156e5e728723c2fcb93891cf66a7ed64ce50",
      "blockNumber": "0xdc2ce40",
      "gasUsed": "0xf30a",
      "effectiveGasPrice": "0x1313ca0",
      "from": "0x23bf95de9f90338f973056351c8cd2cb78cbe52f",
      "to": "0x75faf114eafb1bdbe2f0316df893fd58ce46aa4d",
      "contractAddress": null,
      "gasUsedForL1": "0x3b",
      "l1BlockNumber": "0x98594d",
      "timeboosted": false
    }
  ],
  "libraries": [
    "src/config/Configuration.ArbitrumSepolia.sol:ConfigurationArbitrumSepolia:0xeA877Bb50e4550FAAB3dE0de21110FF2eaDbd607",
    "src/config/Configuration.Base.sol:ConfigurationBaseMainnet:0x42dBf5358d04c4fC65b8A2501732e1b799Cf8C7F",
    "src/config/Configuration.BaseSepolia.sol:ConfigurationBaseSepolia:0x8CD9F0A3Fb33793daeA0828985e8A39b014e4c25",
    "src/config/Configuration.Ethereum.sol:ConfigurationEthereumMainnet:0x7C59aB12ae1cE53A28aeE34d615Eb6f476774fa7",
    "src/config/Configuration.EthereumSepolia.sol:ConfigurationEthereumSepolia:0x43A0e44F7EbbC8DB17807C9583859dc5A06f6E3b",
    "src/config/Configuration.Local.sol:ConfigurationLocal:0xf471EeAbD90669d272Ff633CAAf2d9d6ab6FFC03",
    "src/config/Configuration.OptimismSepolia.sol:ConfigurationOptimismSepolia:0x1447f089Fd0673aD2B03920122Bc9788Be8746cd",
    "src/config/Configuration.sol:Configuration:0xE31E4AE4606486363084bf49f238d681784a7620"
  ],
  "pending": [],
  "returns": {},
  "timestamp": 1767622946408,
  "chain": 421614,
  "commit": "7fb3dc9"
}