{
  "transactions": [
    {
      "hash": "0x7bb25550482fa3f4b2be607915c3a1122e3b62172e20742a325a2737b54f2bde",
      "transactionType": "CALL",
      "contractName": null,
      "contractAddress": "0x75faf114eafb1bdbe2f0316df893fd58ce46aa4d",
      "function": "transfer(address,uint256)",
      "arguments": [
        "0x2a605A84AC1f47A7a3e9FcfBDf541cF1eD001Fc8",
        "100000"
      ],
      "transaction": {
        "from": "0x23bf95de9f90338f973056351c8cd2cb78cbe52f",
        "to": "0x75faf114eafb1bdbe2f0316df893fd58ce46aa4d",
        "gas": "0x13fcc",
        "value": "0x0",
        "input": "0xa9059cbb0000000000000000000000002a605a84ac1f47a7a3e9fcfbdf541cf1ed001fc800000000000000000000000000000000000000000000000000000000000186a0",
        "nonce": "0x2b8",
        "chainId": "0x66eee"
      },
      "additionalContracts": [],
      "isFixedGasLimit": false
    }
  ],
  "receipts": [
    {
      "status": "0x1",
      "cumulativeGasUsed": "0xf2c3",
      "logs": [
        {
          "address": "0x75faf114eafb1bdbe2f0316df893fd58ce46aa4d",
          "topics": [
            "0xddf252ad1be2c89b69c2b068fc378daa952ba7f163c4a11628f55a4df523b3ef",
            "0x00000000000000000000000023bf95de9f90338f973056351c8cd2cb78cbe52f",
            "0x0000000000000000000000002a605a84ac1f47a7a3e9fcfbdf541cf1ed001fc8"
          ],
          "data": "0x00000000000000000000000000000000000000000000000000000000000186a0",
          "blockHash": "0x89ff35e6d0216fd148e98014aad817fc589b5c8a1231c1ade31c6ecc2d996b4d",
          "blockNumber": "0xdc3a3f8",
          "blockTimestamp": "0x695c088a",
          "transactionHash": "0x7bb25550482fa3f4b2be607915c3a1122e3b62172e20742a325a2737b54f2bde",
          "transactionIndex": "0x1",
          "logIndex": "0x0",
          "removed": false
        }
      ],
      "logsBloom": "0x00000000000000000000000000000000000000000000000000000000000000000000000000000000000000000000000000000000000000000000000000000000800000000000000000000008000000000000000000000000000000000000000000000000002000000000000000000000000000000000000000000010000000000000000000000000000000000000000000000000000000000000000000000000000000008000000000000000000100000800000000000000000000000000000000000002000000000000000000000000008000000000000000000000000000000000000000000000000000800000000000000000000000000100000000000004",
      "type": "0x2",
      "transactionHash": "0x7bb25550482fa3f4b2be607915c3a1122e3b62172e20742a325a2737b54f2bde",
      "transactionIndex": "0x1",
      "blockHash": "0x89ff35e6d0216fd148e98014aad817fc589b5c8a1231c1ade31c6ecc2d996b4d",
      "blockNumber": "0xdc3a3f8",
      "gasUsed": "0xf2c3",
      "effectiveGasPrice": "0x1315be0",
      "from": "0x23bf95de9f90338f973056351c8cd2cb78cbe52f",
      "to": "0x75faf114eafb1bdbe2f0316df893fd58ce46aa4d",
      "contractAddress": null,
      "gasUsedForL1": "0x0",
      "l1BlockNumber": "0x985df4",
      "timeboosted": false
    }
  ],
  "libraries": [
    "src/config/Configuration.ArbitrumSepolia.sol:ConfigurationArbitrumSepolia:0xeA877Bb50e4550FAAB3dE0de21110FF2eaDbd607",
    "src/config/Configuration.Base.sol:ConfigurationBaseMainnet:0x42dBf5358d04c4fC65b8A2501732e1b799Cf8C7F",
    "src/config/Configuration.BaseSepolia.sol:ConfigurationBaseSepolia:0x8CD9F0A3Fb33793daeA0828985e8A39b014e4c25",
    "src/config/Configuration.Ethereum.sol:ConfigurationEthereumMainnet:0x7C59aB12ae1cE53A28aeE34d615Eb6f476774fa7",
    "src/config/Configuration.EthereumSepolia.sol:ConfigurationEthereumSepolia:0x43A0e44F7EbbC8DB17807C9583859dc5A06f6E3b",
    "src/config/Configuration.Local.sol:ConfigurationLocal:0xf471EeAbD90669d272Ff633CAAf2d9d6ab6FFC03",
    "src/config/Configuration.OptimismSepolia.sol:ConfigurationOptimismSepolia:0x1447f089Fd0673aD2B03920122Bc9788Be8746cd",
    "src/config/Configuration.sol:Configuration:0xE31E4AE4606486363084bf49f238d681784a7620"
  ],
  "pending": [],
  "returns": {},
  "timestamp": 1767639179183,
  "chain": 421614,
  "commit": "f0c0d72"
}