{
  "transactions": [
    {
      "hash": "0x0f6ed360fa01b35ed80f3ca4522835d35598bdb93f59c0a605a2b8c2fcecced4",
      "transactionType": "CALL",
      "contractName": null,
      "contractAddress": "0x75faf114eafb1bdbe2f0316df893fd58ce46aa4d",
      "function": "approve(address,uint256)",
      "arguments": [
        "0xeEdE49d19e858f62fb58fd996b682202E33E54c3",
        "115792089237316195423570985008687907853269984665640564039457584007913129639935"
      ],
      "transaction": {
        "from": "0x23bf95de9f90338f973056351c8cd2cb78cbe52f",
        "to": "0x75faf114eafb1bdbe2f0316df893fd58ce46aa4d",
        "gas": "0x13c09",
        "value": "0x0",
        "input": "0x095ea7b3000000000000000000000000eede49d19e858f62fb58fd996b682202e33e54c3ffffffffffffffffffffffffffffffffffffffffffffffffffffffffffffffff",
        "nonce": "0x324",
        "chainId": "0x66eee"
      },
      "additionalContracts": [],
      "isFixedGasLimit": false
    },
    {
      "hash": "0xf8b5713de182100a05b6ae80945c4aaf61849912e343b4178d538db56cfae1d8",
      "transactionType": "CALL",
      "contractName": null,
      "contractAddress": "0xeede49d19e858f62fb58fd996b682202e33e54c3",
      "function": "deposit(uint256,address)",
      "arguments": [
        "10000000",
        "0x23BF95De9F90338F973056351C8Cd2CB78cbe52f"
      ],
      "transaction": {
        "from": "0x23bf95de9f90338f973056351c8cd2cb78cbe52f",
        "to": "0xeede49d19e858f62fb58fd996b682202e33e54c3",
        "gas": "0x713d3",
        "value": "0x0",
        "input": "0x6e553f65000000000000000000000000000000000000000000000000000000000098968000000000000000000000000023bf95de9f90338f973056351c8cd2cb78cbe52f",
        "nonce": "0x325",
        "chainId": "0x66eee"
      },
      "additionalContracts": [],
      "isFixedGasLimit": false
    }
  ],
  "receipts": [
    {
      "status": "0x1",
      "cumulativeGasUsed": "0xeba1",
      "logs": [
        {
          "address": "0x75faf114eafb1bdbe2f0316df893fd58ce46aa4d",
          "topics": [
            "0x8c5be1e5ebec7d5bd14f71427d1e84f3dd0314c0f7b2291e5b200ac8c7c3b925",
            "0x00000000000000000000000023bf95de9f90338f973056351c8cd2cb78cbe52f",
            "0x000000000000000000000000eede49d19e858f62fb58fd996b682202e33e54c3"
          ],
          "data": "0xffffffffffffffffffffffffffffffffffffffffffffffffffffffffffffffff",
          "blockHash": "0x0b2f4afea108405485f9f08a4a978a57094d135d64c41963638047dffd250242",
          "blockNumber": "0xe021bdb",
          "blockTimestamp": "0x696eb4b7",
          "transactionHash": "0x0f6ed360fa01b35ed80f3ca4522835d35598bdb93f59c0a605a2b8c2fcecced4",
          "transactionIndex": "0x1",
          "logIndex": "0x0",
          "removed": false
        }
      ],
      "logsBloom": "0x00000000000000000000000000000000000000000000000000000000000000000000000000000000000000000000000000000000000000000000000000200000800000000000000000000800000000000000000000000000000000000000000000000000000000000000000000000000000000000000000000000000000000000000000000000000000000000000000000000000000000000000000000000000020000008000000000000000000100000000000000000000000000000000000000000000000000000000000000000000008000000000010000000000000000400010000000000000000000000000000000000000000000000100000000000004",
      "type": "0x2",
      "transactionHash": "0x0f6ed360fa01b35ed80f3ca4522835d35598bdb93f59c0a605a2b8c2fcecced4",
      "transactionIndex": "0x1",
      "blockHash": "0x0b2f4afea108405485f9f08a4a978a57094d135d64c41963638047dffd250242",
      "blockNumber": "0xe021bdb",
      "gasUsed": "0xeba1",
      "effectiveGasPrice": "0x131b9a0",
      "from": "0x23bf95de9f90338f973056351c8cd2cb78cbe52f",
      "to": "0x75faf114eafb1bdbe2f0316df893fd58ce46aa4d",
      "contractAddress": null,
      "gasUsedForL1": "0x11b8",
      "l1BlockNumber": "0x99d28b",
      "timeboosted": false
    },
    {
      "status": "0x1",
      "cumulativeGasUsed": "0x4e89b",
      "logs": [
        {
          "address": "0x75faf114eafb1bdbe2f0316df893fd58ce46aa4d",
          "topics": [
            "0xddf252ad1be2c89b69c2b068fc378daa952ba7f163c4a11628f55a4df523b3ef",
            "0x00000000000000000000000023bf95de9f90338f973056351c8cd2cb78cbe52f",
            "0x000000000000000000000000eede49d19e858f62fb58fd996b682202e33e54c3"
          ],
          "data": "0x0000000000000000000000000000000000000000000000000000000000989680",
          "blockHash": "0x1bcf9837ec27440cf418808850a6f332d6ce50575e5f284d6ed702d78077ca39",
          "blockNumber": "0xe021bde",
          "blockTimestamp": "0x696eb4b8",
          "transactionHash": "0xf8b5713de182100a05b6ae80945c4aaf61849912e343b4178d538db56cfae1d8",
          "transactionIndex": "0x1",
          "logIndex": "0x0",
          "removed": false
        },
        {
          "address": "0xeede49d19e858f62fb58fd996b682202e33e54c3",
          "topics": [
            "0xddf252ad1be2c89b69c2b068fc378daa952ba7f163c4a11628f55a4df523b3ef",
            "0x0000000000000000000000000000000000000000000000000000000000000000",
            "0x00000000000000000000000023bf95de9f90338f973056351c8cd2cb78cbe52f"
          ],
          "data": "0x0000000000000000000000000000000000000000000000000000000000989680",
          "blockHash": "0x1bcf9837ec27440cf418808850a6f332d6ce50575e5f284d6ed702d78077ca39",
          "blockNumber": "0xe021bde",
          "blockTimestamp": "0x696eb4b8",
          "transactionHash": "0xf8b5713de182100a05b6ae80945c4aaf61849912e343b4178d538db56cfae1d8",
          "transactionIndex": "0x1",
          "logIndex": "0x1",
          "removed": false
        },
        {
          "address": "0xeede49d19e858f62fb58fd996b682202e33e54c3",
          "topics": [
            "0xdcbc1c05240f31ff3ad067ef1ee35ce4997762752e3a095284754544f4c709d7",
            "0x00000000000000000000000023bf95de9f90338f973056351c8cd2cb78cbe52f",
            "0x00000000000000000000000023bf95de9f90338f973056351c8cd2cb78cbe52f"
          ],
          "data": "0x00000000000000000000000000000000000000000000000000000000009896800000000000000000000000000000000000000000000000000000000000989680",
          "blockHash": "0x1bcf9837ec27440cf418808850a6f332d6ce50575e5f284d6ed702d78077ca39",
          "blockNumber": "0xe021bde",
          "blockTimestamp": "0x696eb4b8",
          "transactionHash": "0xf8b5713de182100a05b6ae80945c4aaf61849912e343b4178d538db56cfae1d8",
          "transactionIndex": "0x1",
          "logIndex": "0x2",
          "removed": false
        },
        {
          "address": "0xbfc91d59fdaa134a4ed45f7b584caf96d7792eff",
          "topics": [
            "0x804c9b842b2748a22bb64b345453a3de7ca54a6ca45ce00d415894979e22897a",
            "0x00000000000000000000000075faf114eafb1bdbe2f0316df893fd58ce46aa4d"
          ],
          "data": "0x0000000000000000000000000000000000000000002342bcfc86dc5125c13b2200000000000000000000000000000000000000000068624d56fbfebdf943c2b60000000000000000000000000000000000000000002e7b39bc6ff5c3f343c2b6000000000000000000000000000000000000000003818ae1c85aa65b04c25f450000000000000000000000000000000000000000039c892b267a8a3a795f4e27",
          "blockHash": "0x1bcf9837ec27440cf418808850a6f332d6ce50575e5f284d6ed702d78077ca39",
          "blockNumber": "0xe021bde",
          "blockTimestamp": "0x696eb4b8",
          "transactionHash": "0xf8b5713de182100a05b6ae80945c4aaf61849912e343b4178d538db56cfae1d8",
          "transactionIndex": "0x1",
          "logIndex": "0x3",
          "removed": false
        },
        {
          "address": "0x75faf114eafb1bdbe2f0316df893fd58ce46aa4d",
          "topics": [
            "0xddf252ad1be2c89b69c2b068fc378daa952ba7f163c4a11628f55a4df523b3ef",
            "0x000000000000000000000000eede49d19e858f62fb58fd996b682202e33e54c3",
            "0x000000000000000000000000460b97bd498e1157530aeb3086301d5225b91216"
          ],
          "data": "0x0000000000000000000000000000000000000000000000000000000000989680",
          "blockHash": "0x1bcf9837ec27440cf418808850a6f332d6ce50575e5f284d6ed702d78077ca39",
          "blockNumber": "0xe021bde",
          "blockTimestamp": "0x696eb4b8",
          "transactionHash": "0xf8b5713de182100a05b6ae80945c4aaf61849912e343b4178d538db56cfae1d8",
          "transactionIndex": "0x1",
          "logIndex": "0x4",
          "removed": false
        },
        {
          "address": "0x460b97bd498e1157530aeb3086301d5225b91216",
          "topics": [
            "0xddf252ad1be2c89b69c2b068fc378daa952ba7f163c4a11628f55a4df523b3ef",
            "0x0000000000000000000000000000000000000000000000000000000000000000",
            "0x000000000000000000000000eede49d19e858f62fb58fd996b682202e33e54c3"
          ],
          "data": "0x0000000000000000000000000000000000000000000000000000000000989680",
          "blockHash": "0x1bcf9837ec27440cf418808850a6f332d6ce50575e5f284d6ed702d78077ca39",
          "blockNumber": "0xe021bde",
          "blockTimestamp": "0x696eb4b8",
          "transactionHash": "0xf8b5713de182100a05b6ae80945c4aaf61849912e343b4178d538db56cfae1d8",
          "transactionIndex": "0x1",
          "logIndex": "0x5",
          "removed": false
        },
        {
          "address": "0x460b97bd498e1157530aeb3086301d5225b91216",
          "topics": [
            "0x458f5fa412d0f69b08dd84872b0215675cc67bc1d5b6fd93300a1c3878b86196",
            "0x000000000000000000000000eede49d19e858f62fb58fd996b682202e33e54c3",
            "0x000000000000000000000000eede49d19e858f62fb58fd996b682202e33e54c3"
          ],
          "data": "0x00000000000000000000000000000000000000000000000000000000009896800000000000000000000000000000000000000000000000000000000000000000000000000000000000000000000000000000000003818ae1c85aa65b04c25f45",
          "blockHash": "0x1bcf9837ec27440cf418808850a6f332d6ce50575e5f284d6ed702d78077ca39",
          "blockNumber": "0xe021bde",
          "blockTimestamp": "0x696eb4b8",
          "transactionHash": "0xf8b5713de182100a05b6ae80945c4aaf61849912e343b4178d538db56cfae1d8",
          "transactionIndex": "0x1",
          "logIndex": "0x6",
          "removed": false
        },
        {
          "address": "0xbfc91d59fdaa134a4ed45f7b584caf96d7792eff",
          "topics": [
            "0x00058a56ea94653cdf4f152d227ace22d4c00ad99e2a43f58cb7d9e3feb295f2",
            "0x00000000000000000000000075faf114eafb1bdbe2f0316df893fd58ce46aa4d",
            "0x000000000000000000000000eede49d19e858f62fb58fd996b682202e33e54c3"
          ],
          "data": "0x",
          "blockHash": "0x1bcf9837ec27440cf418808850a6f332d6ce50575e5f284d6ed702d78077ca39",
          "blockNumber": "0xe021bde",
          "blockTimestamp": "0x696eb4b8",
          "transactionHash": "0xf8b5713de182100a05b6ae80945c4aaf61849912e343b4178d538db56cfae1d8",
          "transactionIndex": "0x1",
          "logIndex": "0x7",
          "removed": false
        },
        {
          "address": "0xbfc91d59fdaa134a4ed45f7b584caf96d7792eff",
          "topics": [
            "0x2b627736bca15cd5381dcf80b0bf11fd197d01a037c52b927a881a10fb73ba61",
            "0x00000000000000000000000075faf114eafb1bdbe2f0316df893fd58ce46aa4d",
            "0x000000000000000000000000eede49d19e858f62fb58fd996b682202e33e54c3",
            "0x0000000000000000000000000000000000000000000000000000000000000000"
          ],
          "data": "0x000000000000000000000000eede49d19e858f62fb58fd996b682202e33e54c30000000000000000000000000000000000000000000000000000000000989680",
          "blockHash": "0x1bcf9837ec27440cf418808850a6f332d6ce50575e5f284d6ed702d78077ca39",
          "blockNumber": "0xe021bde",
          "blockTimestamp": "0x696eb4b8",
          "transactionHash": "0xf8b5713de182100a05b6ae80945c4aaf61849912e343b4178d538db56cfae1d8",
          "transactionIndex": "0x1",
          "logIndex": "0x8",
          "removed": false
        },
        {
          "address": "0xeede49d19e858f62fb58fd996b682202e33e54c3",
          "topics": [
            "0xba3ffa58e6beddd202dec6f1b1bb88dbb12d8823d523283b2ebbe9b627c9eb02"
          ],
          "data": "0x00000000000000000000000000000000000000000000000000000000009896800000000000000000000000000000000000000000000000000000000000989680",
          "blockHash": "0x1bcf9837ec27440cf418808850a6f332d6ce50575e5f284d6ed702d78077ca39",
          "blockNumber": "0xe021bde",
          "blockTimestamp": "0x696eb4b8",
          "transactionHash": "0xf8b5713de182100a05b6ae80945c4aaf61849912e343b4178d538db56cfae1d8",
          "transactionIndex": "0x1",
          "logIndex": "0x9",
          "removed": false
        }
      ],
      "logsBloom": "0x000000000000080000800000000000000000000000000000000008000000000000000000000000004000000000040000080180000000000100000000000000008000004401000002000008080100000000000000000000000000000400000000000000000200000000000000000008000200000000040020000000100001000000000000800000000000000000000000000c0000000000000000000000000000000000008000000000000000000100000000000000000000000000000000010002000002000000000000002040000000008000000008090000000400000020400000000000000000000000000000000040000000000000001100400000000004",
      "type": "0x2",
      "transactionHash": "0xf8b5713de182100a05b6ae80945c4aaf61849912e343b4178d538db56cfae1d8",
      "transactionIndex": "0x1",
      "blockHash": "0x1bcf9837ec27440cf418808850a6f332d6ce50575e5f284d6ed702d78077ca39",
      "blockNumber": "0xe021bde",
      "gasUsed": "0x4e89b",
      "effectiveGasPrice": "0x1312d00",
      "from": "0x23bf95de9f90338f973056351c8cd2cb78cbe52f",
      "to": "0xeede49d19e858f62fb58fd996b682202e33e54c3",
      "contractAddress": null,
      "gasUsedForL1": "0x11c0",
      "l1BlockNumber": "0x99d28b",
      "timeboosted": false
    }
  ],
  "libraries": [
    "src/config/Configuration.ArbitrumSepolia.sol:ConfigurationArbitrumSepolia:0xeA877Bb50e4550FAAB3dE0de21110FF2eaDbd607",
    "src/config/Configuration.Base.sol:ConfigurationBaseMainnet:0x42dBf5358d04c4fC65b8A2501732e1b799Cf8C7F",
    "src/config/Configuration.BaseSepolia.sol:ConfigurationBaseSepolia:0x8CD9F0A3Fb33793daeA0828985e8A39b014e4c25",
    "src/config/Configuration.Ethereum.sol:ConfigurationEthereumMainnet:0x7C59aB12ae1cE53A28aeE34d615Eb6f476774fa7",
    "src/config/Configuration.EthereumSepolia.sol:ConfigurationEthereumSepolia:0x43A0e44F7EbbC8DB17807C9583859dc5A06f6E3b",
    "src/config/Configuration.Local.sol:ConfigurationLocal:0xf471EeAbD90669d272Ff633CAAf2d9d6ab6FFC03",
    "src/config/Configuration.OptimismSepolia.sol:ConfigurationOptimismSepolia:0x1447f089Fd0673aD2B03920122Bc9788Be8746cd",
    "src/config/Configuration.sol:Configuration:0xE31E4AE4606486363084bf49f238d681784a7620"
  ],
  "pending": [],
  "returns": {},
  "timestamp": 1768862904680,
  "chain": 421614,
  "commit": "a34e256"
}