{
  "transactions": [
    {
      "hash": "0xfd384d7b214a0fb37a0ffa629c6c5aefbf2abe9da2c783c1fed16ea756209fda",
      "transactionType": "CALL",
      "contractName": null,
      "contractAddress": "0x75faf114eafb1bdbe2f0316df893fd58ce46aa4d",
      "function": "approve(address,uint256)",
      "arguments": [
        "0x3a7Ec00B5e41696C29AFdc2A62624055ac5A69c0",
        "115792089237316195423570985008687907853269984665640564039457584007913129639935"
      ],
      "transaction": {
        "from": "0x23bf95de9f90338f973056351c8cd2cb78cbe52f",
        "to": "0x75faf114eafb1bdbe2f0316df893fd58ce46aa4d",
        "gas": "0x13744",
        "value": "0x0",
        "input": "0x095ea7b30000000000000000000000003a7ec00b5e41696c29afdc2a62624055ac5a69c0ffffffffffffffffffffffffffffffffffffffffffffffffffffffffffffffff",
        "nonce": "0x2e2",
        "chainId": "0x66eee"
      },
      "additionalContracts": [],
      "isFixedGasLimit": false
    },
    {
      "hash": "0x4ca39367943aba92a5351b9c896cf914e6e5782c68686b170e759c2e6e55ee8a",
      "transactionType": "CALL",
      "contractName": null,
      "contractAddress": "0x3a7ec00b5e41696c29afdc2a62624055ac5a69c0",
      "function": "deposit(uint256,address)",
      "arguments": [
        "1000000",
        "0x23BF95De9F90338F973056351C8Cd2CB78cbe52f"
      ],
      "transaction": {
        "from": "0x23bf95de9f90338f973056351c8cd2cb78cbe52f",
        "to": "0x3a7ec00b5e41696c29afdc2a62624055ac5a69c0",
        "gas": "0x713d3",
        "value": "0x0",
        "input": "0x6e553f6500000000000000000000000000000000000000000000000000000000000f424000000000000000000000000023bf95de9f90338f973056351c8cd2cb78cbe52f",
        "nonce": "0x2e3",
        "chainId": "0x66eee"
      },
      "additionalContracts": [],
      "isFixedGasLimit": false
    }
  ],
  "receipts": [
    {
      "status": "0x1",
      "cumulativeGasUsed": "0xe8b2",
      "logs": [
        {
          "address": "0x75faf114eafb1bdbe2f0316df893fd58ce46aa4d",
          "topics": [
            "0x8c5be1e5ebec7d5bd14f71427d1e84f3dd0314c0f7b2291e5b200ac8c7c3b925",
            "0x00000000000000000000000023bf95de9f90338f973056351c8cd2cb78cbe52f",
            "0x0000000000000000000000003a7ec00b5e41696c29afdc2a62624055ac5a69c0"
          ],
          "data": "0xffffffffffffffffffffffffffffffffffffffffffffffffffffffffffffffff",
          "blockHash": "0xde6eed92fd0765dc5252ac71f446a5aecbb64693fd21df44524ba439fe6f08bb",
          "blockNumber": "0xdeecbef",
          "blockTimestamp": "0x69691253",
          "transactionHash": "0xfd384d7b214a0fb37a0ffa629c6c5aefbf2abe9da2c783c1fed16ea756209fda",
          "transactionIndex": "0x1",
          "logIndex": "0x0",
          "removed": false
        }
      ],
      "logsBloom": "0x00000000000000000000000000000000000000000000000000000000000000000000000000000000000000000000000000000000000000000000000000200000800000000000000000000000000000000000000000000000000000000000000000000000000000000000000000000000000000000000000000000000000000000000000000000000000000000000000000000000000000000000000000000000020000008000000000000000000100000000000000000000000000000000008000000000000000000000000000000000008000000000400000000000000000000010000000000000000000000000000000000000000000000100800000000004",
      "type": "0x2",
      "transactionHash": "0xfd384d7b214a0fb37a0ffa629c6c5aefbf2abe9da2c783c1fed16ea756209fda",
      "transactionIndex": "0x1",
      "blockHash": "0xde6eed92fd0765dc5252ac71f446a5aecbb64693fd21df44524ba439fe6f08bb",
      "blockNumber": "0xdeecbef",
      "gasUsed": "0xe8b2",
      "effectiveGasPrice": "0x1317b20",
      "from": "0x23bf95de9f90338f973056351c8cd2cb78cbe52f",
      "to": "0x75faf114eafb1bdbe2f0316df893fd58ce46aa4d",
      "contractAddress": null,
      "gasUsedForL1": "0xec9",
      "l1BlockNumber": "0x995a9d",
      "timeboosted": false
    },
    {
      "status": "0x1",
      "cumulativeGasUsed": "0x4e5a7",
      "logs": [
        {
          "address": "0x75faf114eafb1bdbe2f0316df893fd58ce46aa4d",
          "topics": [
            "0xddf252ad1be2c89b69c2b068fc378daa952ba7f163c4a11628f55a4df523b3ef",
            "0x00000000000000000000000023bf95de9f90338f973056351c8cd2cb78cbe52f",
            "0x0000000000000000000000003a7ec00b5e41696c29afdc2a62624055ac5a69c0"
          ],
          "data": "0x00000000000000000000000000000000000000000000000000000000000f4240",
          "blockHash": "0x86bf4313e82a6f76558f00773452220ddfa0de5ae334c50fcfc9c60122568eeb",
          "blockNumber": "0xdeecbf2",
          "blockTimestamp": "0x69691254",
          "transactionHash": "0x4ca39367943aba92a5351b9c896cf914e6e5782c68686b170e759c2e6e55ee8a",
          "transactionIndex": "0x1",
          "logIndex": "0x0",
          "removed": false
        },
        {
          "address": "0x3a7ec00b5e41696c29afdc2a62624055ac5a69c0",
          "topics": [
            "0xddf252ad1be2c89b69c2b068fc378daa952ba7f163c4a11628f55a4df523b3ef",
            "0x0000000000000000000000000000000000000000000000000000000000000000",
            "0x00000000000000000000000023bf95de9f90338f973056351c8cd2cb78cbe52f"
          ],
          "data": "0x00000000000000000000000000000000000000000000000000000000000f4240",
          "blockHash": "0x86bf4313e82a6f76558f00773452220ddfa0de5ae334c50fcfc9c60122568eeb",
          "blockNumber": "0xdeecbf2",
          "blockTimestamp": "0x69691254",
          "transactionHash": "0x4ca39367943aba92a5351b9c896cf914e6e5782c68686b170e759c2e6e55ee8a",
          "transactionIndex": "0x1",
          "logIndex": "0x1",
          "removed": false
        },
        {
          "address": "0x3a7ec00b5e41696c29afdc2a62624055ac5a69c0",
          "topics": [
            "0xdcbc1c05240f31ff3ad067ef1ee35ce4997762752e3a095284754544f4c709d7",
            "0x00000000000000000000000023bf95de9f90338f973056351c8cd2cb78cbe52f",
            "0x00000000000000000000000023bf95de9f90338f973056351c8cd2cb78cbe52f"
          ],
          "data": "0x00000000000000000000000000000000000000000000000000000000000f424000000000000000000000000000000000000000000000000000000000000f4240",
          "blockHash": "0x86bf4313e82a6f76558f00773452220ddfa0de5ae334c50fcfc9c60122568eeb",
          "blockNumber": "0xdeecbf2",
          "blockTimestamp": "0x69691254",
          "transactionHash": "0x4ca39367943aba92a5351b9c896cf914e6e5782c68686b170e759c2e6e55ee8a",
          "transactionIndex": "0x1",
          "logIndex": "0x2",
          "removed": false
        },
        {
          "address": "0xbfc91d59fdaa134a4ed45f7b584caf96d7792eff",
          "topics": [
            "0x804c9b842b2748a22bb64b345453a3de7ca54a6ca45ce00d415894979e22897a",
            "0x00000000000000000000000075faf114eafb1bdbe2f0316df893fd58ce46aa4d"
          ],
          "data": "0x0000000000000000000000000000000000000000002342d0e407c6d7b69b037100000000000000000000000000000000000000000068625a75795f4de65c1f0c0000000000000000000000000000000000000000002e7b46daed5653e05c1f0c000000000000000000000000000000000000000003811838d968839de8edc4ea0000000000000000000000000000000000000000039bed7d6ad011d7cd6af2ee",
          "blockHash": "0x86bf4313e82a6f76558f00773452220ddfa0de5ae334c50fcfc9c60122568eeb",
          "blockNumber": "0xdeecbf2",
          "blockTimestamp": "0x69691254",
          "transactionHash": "0x4ca39367943aba92a5351b9c896cf914e6e5782c68686b170e759c2e6e55ee8a",
          "transactionIndex": "0x1",
          "logIndex": "0x3",
          "removed": false
        },
        {
          "address": "0x75faf114eafb1bdbe2f0316df893fd58ce46aa4d",
          "topics": [
            "0xddf252ad1be2c89b69c2b068fc378daa952ba7f163c4a11628f55a4df523b3ef",
            "0x0000000000000000000000003a7ec00b5e41696c29afdc2a62624055ac5a69c0",
            "0x000000000000000000000000460b97bd498e1157530aeb3086301d5225b91216"
          ],
          "data": "0x00000000000000000000000000000000000000000000000000000000000f4240",
          "blockHash": "0x86bf4313e82a6f76558f00773452220ddfa0de5ae334c50fcfc9c60122568eeb",
          "blockNumber": "0xdeecbf2",
          "blockTimestamp": "0x69691254",
          "transactionHash": "0x4ca39367943aba92a5351b9c896cf914e6e5782c68686b170e759c2e6e55ee8a",
          "transactionIndex": "0x1",
          "logIndex": "0x4",
          "removed": false
        },
        {
          "address": "0x460b97bd498e1157530aeb3086301d5225b91216",
          "topics": [
            "0xddf252ad1be2c89b69c2b068fc378daa952ba7f163c4a11628f55a4df523b3ef",
            "0x0000000000000000000000000000000000000000000000000000000000000000",
            "0x0000000000000000000000003a7ec00b5e41696c29afdc2a62624055ac5a69c0"
          ],
          "data": "0x00000000000000000000000000000000000000000000000000000000000f4240",
          "blockHash": "0x86bf4313e82a6f76558f00773452220ddfa0de5ae334c50fcfc9c60122568eeb",
          "blockNumber": "0xdeecbf2",
          "blockTimestamp": "0x69691254",
          "transactionHash": "0x4ca39367943aba92a5351b9c896cf914e6e5782c68686b170e759c2e6e55ee8a",
          "transactionIndex": "0x1",
          "logIndex": "0x5",
          "removed": false
        },
        {
          "address": "0x460b97bd498e1157530aeb3086301d5225b91216",
          "topics": [
            "0x458f5fa412d0f69b08dd84872b0215675cc67bc1d5b6fd93300a1c3878b86196",
            "0x0000000000000000000000003a7ec00b5e41696c29afdc2a62624055ac5a69c0",
            "0x0000000000000000000000003a7ec00b5e41696c29afdc2a62624055ac5a69c0"
          ],
          "data": "0x00000000000000000000000000000000000000000000000000000000000f42400000000000000000000000000000000000000000000000000000000000000000000000000000000000000000000000000000000003811838d968839de8edc4ea",
          "blockHash": "0x86bf4313e82a6f76558f00773452220ddfa0de5ae334c50fcfc9c60122568eeb",
          "blockNumber": "0xdeecbf2",
          "blockTimestamp": "0x69691254",
          "transactionHash": "0x4ca39367943aba92a5351b9c896cf914e6e5782c68686b170e759c2e6e55ee8a",
          "transactionIndex": "0x1",
          "logIndex": "0x6",
          "removed": false
        },
        {
          "address": "0xbfc91d59fdaa134a4ed45f7b584caf96d7792eff",
          "topics": [
            "0x00058a56ea94653cdf4f152d227ace22d4c00ad99e2a43f58cb7d9e3feb295f2",
            "0x00000000000000000000000075faf114eafb1bdbe2f0316df893fd58ce46aa4d",
            "0x0000000000000000000000003a7ec00b5e41696c29afdc2a62624055ac5a69c0"
          ],
          "data": "0x",
          "blockHash": "0x86bf4313e82a6f76558f00773452220ddfa0de5ae334c50fcfc9c60122568eeb",
          "blockNumber": "0xdeecbf2",
          "blockTimestamp": "0x69691254",
          "transactionHash": "0x4ca39367943aba92a5351b9c896cf914e6e5782c68686b170e759c2e6e55ee8a",
          "transactionIndex": "0x1",
          "logIndex": "0x7",
          "removed": false
        },
        {
          "address": "0xbfc91d59fdaa134a4ed45f7b584caf96d7792eff",
          "topics": [
            "0x2b627736bca15cd5381dcf80b0bf11fd197d01a037c52b927a881a10fb73ba61",
            "0x00000000000000000000000075faf114eafb1bdbe2f0316df893fd58ce46aa4d",
            "0x0000000000000000000000003a7ec00b5e41696c29afdc2a62624055ac5a69c0",
            "0x0000000000000000000000000000000000000000000000000000000000000000"
          ],
          "data": "0x0000000000000000000000003a7ec00b5e41696c29afdc2a62624055ac5a69c000000000000000000000000000000000000000000000000000000000000f4240",
          "blockHash": "0x86bf4313e82a6f76558f00773452220ddfa0de5ae334c50fcfc9c60122568eeb",
          "blockNumber": "0xdeecbf2",
          "blockTimestamp": "0x69691254",
          "transactionHash": "0x4ca39367943aba92a5351b9c896cf914e6e5782c68686b170e759c2e6e55ee8a",
          "transactionIndex": "0x1",
          "logIndex": "0x8",
          "removed": false
        },
        {
          "address": "0x3a7ec00b5e41696c29afdc2a62624055ac5a69c0",
          "topics": [
            "0xba3ffa58e6beddd202dec6f1b1bb88dbb12d8823d523283b2ebbe9b627c9eb02"
          ],
          "data": "0x00000000000000000000000000000000000000000000000000000000000f424000000000000000000000000000000000000000000000000000000000000f4240",
          "blockHash": "0x86bf4313e82a6f76558f00773452220ddfa0de5ae334c50fcfc9c60122568eeb",
          "blockNumber": "0xdeecbf2",
          "blockTimestamp": "0x69691254",
          "transactionHash": "0x4ca39367943aba92a5351b9c896cf914e6e5782c68686b170e759c2e6e55ee8a",
          "transactionIndex": "0x1",
          "logIndex": "0x9",
          "removed": false
        }
      ],
      "logsBloom": "0x000000000000080000800000000000000000000000000000000000000000000000000000000000000000000000040000000180000000000100000000000000008000004401000002000000080100000000000000000000000000000400000000100000000200000000000000000008000200000000040020000000100001000000000000800000000000000000000000000c0000000000000000000000000000000000008000000000000000000100000000000000000000000000400000018002000022000000000000002040000000008000000008480000000400000020000000000000000000000000000000000040000000000000001100c00000000004",
      "type": "0x2",
      "transactionHash": "0x4ca39367943aba92a5351b9c896cf914e6e5782c68686b170e759c2e6e55ee8a",
      "transactionIndex": "0x1",
      "blockHash": "0x86bf4313e82a6f76558f00773452220ddfa0de5ae334c50fcfc9c60122568eeb",
      "blockNumber": "0xdeecbf2",
      "gasUsed": "0x4e5a7",
      "effectiveGasPrice": "0x1312d00",
      "from": "0x23bf95de9f90338f973056351c8cd2cb78cbe52f",
      "to": "0x3a7ec00b5e41696c29afdc2a62624055ac5a69c0",
      "contractAddress": null,
      "gasUsedForL1": "0xecc",
      "l1BlockNumber": "0x995a9d",
      "timeboosted": false
    }
  ],
  "libraries": [
    "src/config/Configuration.ArbitrumSepolia.sol:ConfigurationArbitrumSepolia:0xeA877Bb50e4550FAAB3dE0de21110FF2eaDbd607",
    "src/config/Configuration.Base.sol:ConfigurationBaseMainnet:0x42dBf5358d04c4fC65b8A2501732e1b799Cf8C7F",
    "src/config/Configuration.BaseSepolia.sol:ConfigurationBaseSepolia:0x8CD9F0A3Fb33793daeA0828985e8A39b014e4c25",
    "src/config/Configuration.Ethereum.sol:ConfigurationEthereumMainnet:0x7C59aB12ae1cE53A28aeE34d615Eb6f476774fa7",
    "src/config/Configuration.EthereumSepolia.sol:ConfigurationEthereumSepolia:0x43A0e44F7EbbC8DB17807C9583859dc5A06f6E3b",
    "src/config/Configuration.Local.sol:ConfigurationLocal:0xf471EeAbD90669d272Ff633CAAf2d9d6ab6FFC03",
    "src/config/Configuration.OptimismSepolia.sol:ConfigurationOptimismSepolia:0x1447f089Fd0673aD2B03920122Bc9788Be8746cd",
    "src/config/Configuration.sol:Configuration:0xE31E4AE4606486363084bf49f238d681784a7620"
  ],
  "pending": [],
  "returns": {},
  "timestamp": 1768493653003,
  "chain": 421614,
  "commit": "a147c83"
}